:020000040800F2
:10000000000001201D1E0008F91D0008FB1D00084E
:10001000FD1D0008FF1D0008011E00080000000073
:10002000000000000000000000000000D10F0008E8
:10003000031E00080000000071100008051E0008E3
:10004000651E0008651E0008651E0008651E000884
:10005000651E0008651E0008651E0008651E000874
:10006000651E0008651E0008651E0008651E000864
:10007000651E0008651E0008651E0008651E000854
:10008000651E0008651E0008651E0008651E000844
:10009000651E0008651E0008651E0008651E000834
:1000A000651E0008651E0008651E0008651E000824
:1000B000651E0008651E0008651E0008651E000814
:1000C000651E0008651E0008651E0008651E000804
:1000D000651E0008651E0008651E0008651E0008F4
:1000E000651E0008651E0008651E0008651E0008E4
:1000F000651E0008651E0008651E0008651E0008D4
:10010000651E0008651E0008651E0008651E0008C3
:10011000651E0008651E0008651E0008651E0008B3
:10012000651E0008651E0008651E0008651E0008A3
:1001300000000000000000000000000000000000BF
:1001400000000000000000000000000000000000AF
:10015000000000000000000000000000000000009F
:10016000000000000000000000000000000000008F
:10017000000000000000000000000000000000007F
:10018000000000000000000000000000000000006F
:10019000000000000000000000000000000000005F
:1001A000000000000000000000000000000000004F
:1001B000000000000000000000000000000000003F
:1001C000000000000000000000000000000000002F
:1001D000000000000000000000000000000000001F
:0401E0005FF8E0F1F3
:1001F00010B5054C237833B9044B13B10448AFF361
:1002000000800123237010BD740000200000000056
:10021000A428000808B5034B1BB103490348AFF3FA
:10022000008008BD0000000078000020A42800081D
:1002300010B504460E4B18784FF47A73B3FBF0F305
:100240000C4A1068B0FBF3F000F086F868B90F2C88
:1002500001D901200AE0002221464FF0FF3000F0D2
:1002600043F8054B1C60002000E0012010BD00BFDA
:10027000000000200C0000200400002008B5074A00
:10028000136843F010031360032000F01BF80F20E5
:10029000FFF7CEFF01F04AFD002008BD002002401C
:1002A000034A1168034B1B780B441360704700BF6F
:1002B0009000002000000020014B1868704700BF2C
:1002C00090000020074AD36823F4E0631B041B0C52
:1002D000000200F4E060034343F0BF6343F40033E3
:1002E000D360704700ED00E000B5194BDB68C3F345
:1002F0000223C3F1070CBCF1040F28BF4FF0040C1C
:1003000003F1040EBEF1060F18D9033B4FF0FF3E78
:100310000EFA0CFC21EA0C0199400EFA03F322EAD2
:100320000303194300280BDB0901C9B200F1604047
:1003300000F5614080F800135DF804FB0023E5E759
:1003400000F00F000901C9B2024B1954F4E700BFD5
:1003500000ED00E014ED00E00138B0F1807F0BD239
:100360004FF0E0235861054AF02182F82310002065
:10037000986107221A6170470120704700ED00E084
:1003800070B582B00024A446B0E0874DAA4210D0D8
:1003900007D9864DAA420CD005F58035AA4208D06F
:1003A00013E0A5F58015AA4203D005F57025AA42F1
:1003B00007D18A68002A62D0012A5BD043610824F1
:1003C00003E0A5F58015AA42F3D0BEF1FF0F58D87F
:1003D0000646BEF1FF0F56D84FEA8C0233680F2550
:1003E000954023EA050304FA02F2134333604B6895
:1003F00013F0805F78D06E4B9A6942F001029A61E7
:100400009B6903F001030193019B4FEA9C02951C39
:10041000684B53F825600CF003039D000F23AB409D
:1004200026EA0306644B984233D003F58063984272
:1004300000F0988003F58063984200F0958003F502
:100440008063984200F0928003F58063984200F048
:100450008F8003F58063984219D006231AE0CC6898
:10046000B3E7CC680434B0E7CC680834ADE7CC68B7
:100470000C34AAE703610824A7E70024A5E70424B5
:10048000A3E7061DA5E7ACF108029200A6E7052345
:1004900000E00023AB4033430232464D45F82230A2
:1004A0004B6813F4803F65D0444A136843EA0E0357
:1004B00013604B6813F4003F62D0404A536843EA2C
:1004C0000E0353604B6813F4801F5FD03B4A936860
:1004D00043EA0E0393604B6813F4001F5CD0374A65
:1004E000D36843EA0E03D3600CF1010C0A6832FAB8
:1004F0000CF357D0012303FA0CF302EA030E33EA9C
:100500000202F1D14A68122A3FF63FAF122A3FF6A3
:100510005CAF01A555F822F0B30300085F040008A2
:10052000690400087B040008CB030008CB03000823
:10053000CB030008CB030008CB030008CB03000863
:10054000CB030008CB030008CB030008CB03000853
:10055000CB030008CB030008CB03000863040008AA
:100560006F040008012395E7022393E7032391E733
:1005700004238FE7114A136823EA0E03136098E7F8
:100580000E4A536823EA0E0353609BE70B4A9368B5
:1005900023EA0E0393609EE7084AD36823EA0E031A
:1005A000D360A1E702B070BD00002210000031103E
:1005B000001002400000014000080140000401401A
:1005C0000AB10161704709040161704782B0084BAC
:1005D0001B68084AA2FB03235B0A00FB03F3019399
:1005E00000BF019B5A1E0192002BF9D102B0704747
:1005F0000C000020D34D6210002800F0F18170B58E
:1006000082B00446036813F0010F2CD0994B5B684D
:1006100003F00C03042B1DD0964B5B6803F00C0316
:10062000082B12D06368B3F5803F41D0002B55D121
:1006300003F1804303F504331A6822F480321A6010
:100640001A6822F480221A6037E08A4B5B6813F440
:10065000803FE7D0874B1B6813F4003F03D06368EB
:10066000002B00F0BF81236813F0020F75D0814B7F
:100670005B6813F00C0F5FD07E4B5B6803F00C03DC
:10068000082B54D02369002B00F08A807A4B01227A
:100690001A60FFF711FE0546764B1B6813F0020F38
:1006A00075D1FFF709FE401B0228F5D903209EE112
:1006B000704A136843F480331360636843B3FFF7F1
:1006C000FBFD05466B4B1B6813F4003FCBD1FFF7D6
:1006D000F3FD401B6428F5D9032088E1B3F5A02F72
:1006E00009D0644B1A6822F480321A601A6822F426
:1006F00080221A60E1E703F18043A3F53C331A68D6
:1007000042F480221A601A6842F480321A60D4E7F8
:10071000FFF7D2FD0546574B1B6813F4003FA2D0EC
:10072000FFF7CAFD401B6428F5D903205FE1514B58
:100730005B6813F4803FA5D14E4B1B6813F0020F8A
:1007400003D02369012B40F04F814A4A136823F0FC
:10075000F803616943EAC1031360236813F0080FCB
:1007600033D0A369002B5CD0434B0122C3F8802413
:10077000FFF7A2FD05463F4B5B6A13F0020F21D144
:10078000FFF79AFD401B0228F5D903202FE1394AD3
:10079000136823F0F803616943EAC1031360DCE7DF
:1007A000354B00221A60FFF787FD0546314B1B6869
:1007B00013F0020FD1D0FFF77FFD401B0228F5D9BF
:1007C000032014E10120FFF701FF236813F0040F59
:1007D00000F09680274BDB6913F0805F34D1254B06
:1007E000DA6942F08052DA61DB6903F080530193E9
:1007F000019B0125214B1B6813F4807F26D0E36801
:10080000012B3DD0002B53D103F1804303F504337A
:100810001A6A22F001021A621A6A22F004021A62AB
:1008200033E0154B0022C3F88024FFF745FD054651
:10083000104B5B6A13F0020FC7D0FFF73DFD401B62
:100840000228F5D90320D2E00025D3E70B4A13682C
:1008500043F480731360FFF72FFD0646074B1B68B8
:1008600013F4807FCBD1FFF727FD801B6428F5D9D7
:100870000320BCE000100240000042420070004033
:100880005F4A136A43F001031362E36833B3FFF76F
:1008900013FD06465A4B1B6A13F0020F2FD1FFF7C8
:1008A0000BFD801B41F288339842F3D903209EE070
:1008B000052B09D0524B1A6A22F001021A621A6AF9
:1008C00022F004021A62E0E74D4B1A6A42F0040279
:1008D0001A621A6A42F001021A62D6E7FFF7ECFCCC
:1008E0000646474B1B6A13F0020F08D0FFF7E4FCE3
:1008F000801B41F288339842F3D9032077E0E5B9B1
:10090000E369002B72D03E4A526802F00C02082ABA
:1009100056D0022B17D03B4B00221A66FFF7CCFCB7
:100920000446374B1B6813F0007F47D0FFF7C4FC29
:10093000001B0228F5D9032059E0314AD36923F07E
:100940008053D361DCE72F4B00221A66FFF7B4FC1B
:1009500005462B4B1B6813F0007F06D0FFF7ACFC5D
:10096000401B0228F5D9032041E0236AB3F5803FFC
:100970001AD023494B6823F47413226A606A024335
:1009800013434B601F4B01221A66FFF795FC044688
:100990001B4B1B6813F0007F0ED1FFF78DFC001B73
:1009A0000228F5D9032022E0154A536823F40033C6
:1009B000A1680B435360DCE7002018E0002016E03C
:1009C000012B16D00E4B5B6803F48031226A9142F2
:1009D00011D103F47013626A93420ED1002006E035
:1009E00001207047012002E0012000E0002002B059
:1009F00070BD0120FBE70120F9E70120F7E700BF08
:100A0000001002400000424286B0164B0FCB0DF1A1
:100A1000180C0CE90F0040F20123ADF80430124B22
:100A20005B6803F00C02082A02D0104806B0704739
:100A3000C3F38342624412F8100C13F4803F0CD0CD
:100A4000094B5B68C3F34043634413F8143C074A03
:100A500002FB00F0B0FBF3F0E8E7054B03FB00F00E
:100A6000E4E700BFF82800080010024000127A00F6
:100A700000093D00002800F0A08070B50D46044636
:100A8000524B1B6803F007038B420BD24F4A13688B
:100A900023F007030B431360136803F007038B4233
:100AA00040F08D80236813F0020F17D013F0040F6D
:100AB00004D0474A536843F4E0635360236813F05B
:100AC000080F04D0424A536843F460535360404ACD
:100AD000536823F0F003A1680B435360236813F0BD
:100AE000010F31D06368012B20D0022B25D0384A6A
:100AF000126812F0020F64D035494A6822F00302EE
:100B000013434B60FFF7D8FB0646314B5B6803F09D
:100B10000C036268B3EB820F16D0FFF7CDFB801B8E
:100B200041F288339842F0D9032045E0284A126800
:100B300012F4003FE0D101203EE0254A126812F095
:100B4000007FD9D1012037E0204B1B6803F0070359
:100B5000AB420AD91D4A136823F007032B431360E5
:100B6000136803F00703AB422DD1236813F0040F81
:100B700006D0174A536823F4E063E1680B435360DF
:100B8000236813F0080F07D0114A536823F4605309
:100B9000216943EAC1035360FFF736FF0C4B5B68E2
:100BA000C3F303130B4AD35CD8400B4B18600B4BB9
:100BB0001868FFF73DFB002070BD01207047012041
:100BC000FAE70120F8E70120F6E700BF0020024025
:100BD00000100240502900080C00002004000020F2
:100BE000014B1868704700BF0C00002008B5FFF7E4
:100BF000F7FF044B5B68C3F30223034AD35CD8407E
:100C000008BD00BF001002406029000808B5FFF7CA
:100C1000E7FF044B5B68C3F3C223034AD35CD840AD
:100C200008BD00BF001002406029000810B504464E
:100C30000268136923F44053C1680B43136183684E
:100C40000269134342691A430168CB6823F4B05325
:100C500023F00C031343CB600268536923F4407301
:100C600081690B4353610268134B9A4220D0FFF70E
:100C7000BDFF024602EB820202EB820263689B0028
:100C8000B2FBF3F20D48A0FB02314909642303FBD8
:100C900011231B013233A0FB03235B0903F0F00295
:100CA00002EB011203F00F03216813448B6010BDA7
:100CB000FFF7ACFF0246DDE7003801401F85EB512E
:100CC0002DE9F84305460F4616469946DDF8208083
:100CD0002C68246837EA04030CBF4FF0010C4FF076
:100CE000000CB4451FD1B8F1FF3FF1D0B8F1000FAF
:100CF00005D0FFF7E1FAA0EB09004045E8D92A68E2
:100D0000D36823F4D073D3602A68536923F00103B6
:100D10005361202385F8393085F83A30002385F86F
:100D20003830032000E00020BDE8F88358B310B548
:100D3000044690F839300BB3242384F83930226804
:100D4000D36823F40053D3602046FFF76FFF226877
:100D5000136923F4904313612268536923F02A0333
:100D600053612268D36843F40053D3600020E063EA
:100D7000202384F8393084F83A3010BD80F83830B8
:100D800000F0FEFFD8E7012070472DE9F04182B066
:100D90001E4690F83930DBB2202B54D104460D4664
:100DA0009046002953D0002A53D090F83830012BB8
:100DB00051D0012380F838300023C363212380F809
:100DC0003930FFF779FA0746A4F82480A4F8268082
:100DD000A368B3F5805F05D04FF00008002384F8C6
:100DE000383012E0236913B14FF00008F6E7A84647
:100DF0000025F3E738F8023B2268C3F30803536089
:100E0000E28C92B2013A92B2E284E38C9BB273B16B
:100E100000963B46002280212046FFF751FFE0B9B3
:100E2000002DE7D015F8012B23685A60E8E70096FB
:100E30003B46002240212046FFF742FF78B920239D
:100E400084F8393000E0022002B0BDE8F0810120D2
:100E5000FAE70120F8E70220F6E70320F4E7032091
:100E6000F2E7842801D0033070470020704708B5AE
:100E700000F066FC002008BDF0B585B00C46456862
:100E800006680769B0F90800FFF7EBFF03AB0193B1
:100E900000902346BAB23146284600F01FFC0128D4
:100EA00002D1039805B0F0BD0020FBE708B500B9FA
:100EB000012000F093FD002008BD00F1080343600D
:100EC0004FF0FF328260C36003610023036070470C
:100ED00000230361704743684B609A688A605160E1
:100EE00099600861036801330360704730B40D688E
:100EF000B5F1FF3F11D000F108031C465B681A688A
:100F0000AA42FAD963684B6099608C60616008619D
:100F100003680133036030BC70470469F2E703697A
:100F2000416882688A60416851605A68824206D08E
:100F3000002202611A68013A1A60186870478268D4
:100F40005A60F5E782B0002301930D4B1B68B3F1A3
:100F5000FF3F08D04FF0500383F31188BFF36F8F2A
:100F6000BFF34F8FFEE74FF0500383F31188BFF3B9
:100F70006F8FBFF34F8F019B002BFCD002B07047E7
:100F80000800002006480068006880F3088862B600
:100F900061B6BFF34F8FBFF36F8F00DF00BF00005C
:100FA00008ED00E04FF0807340F8043C21F00101AF
:100FB00040F8081C034B40F80C3C40F8202C40380B
:100FC000704700BF450F000800000000000000004F
:100FD000074B19680868B0E8F00F80F30988BFF381
:100FE0006F8F4FF0000080F311884EF00D0E7047A8
:100FF000B40C00204FF0500383F31188BFF36F8FC0
:10100000BFF34F8F0B4A136801331360012B00D0DD
:1010100070474FF0E023D3F8043D13F0FF0FF7D0F3
:101020004FF0500383F31188BFF36F8FBFF34F8FDF
:10103000FEE700BF08000020094B1B6843B94FF0D2
:10104000500383F31188BFF36F8FBFF34F8FFEE719
:10105000013B034A13600BB983F31188704700BF4B
:101060000800002000000000000000000000000058
:10107000EFF30980BFF36F8F0D4B1A6820E9F00F73
:1010800010602DE908404FF0500080F3118800F007
:10109000CBFC4FF0000080F31188BDE808401968D0
:1010A0000868B0E8F00F80F30988BFF36F8F7047CE
:1010B000B40C002008B54FF0500383F31188BFF340
:1010C0006F8FBFF34F8F00F081FB28B14FF0E0230B
:1010D0004FF08052C3F8042D002383F3118808BD1C
:1010E0004FF0E022002313619361054B1B68054913
:1010F000A1FB03139B09013B536107231361704755
:101100000C000020D34D621010B582B02A4B1A7823
:10111000D2B20192FF221A701B78DBB28DF8033035
:101120009DF8033003F05003244A1370244B072228
:101130001A6009E0224A1368013B13609DF80330EE
:101140005B00DBB28DF803309DF8033013F0800FA5
:10115000F0D11B4B1B68032B08D04FF0500383F3D7
:101160001188BFF36F8FBFF34F8FFEE71B02144A46
:10117000136003F4E0631360019BDBB20E4A13704B
:101180004FF0E023D3F8202D42F47002C3F8202D55
:10119000D3F8202D42F07042C3F8202DFFF7A0FFB6
:1011A0000024084B1C60FFF7EDFE00F03DFCFFF74C
:1011B000C9FE204602B010BD00E400E0940000200B
:1011C0009800002008000020124A12F0070F1ED0DD
:1011D000D11D21F00701C1F5406313440A460E48B2
:1011E0000260002141601344083B23F007030B48D1
:1011F000036059601960991A51601360084B1960B7
:10120000084B1960084B4FF000421A6070474FF4CA
:101210004063E4E7A0000020AC0C00209C0000200C
:10122000A80C0020A40C0020A00C0020154B1A468E
:101230001B688342FBD3516802EB010C844509D043
:10124000416800EB010C634509D00360904218D05F
:10125000106070474068014451601046F0E710B4D8
:10126000094C2468A3420AD05B68194441601368A2
:101270001B680360904200D0106010BC704704608F
:10128000F8E77047AC0C00209C00002070B50546C4
:1012900000F094FA344B1B68A3B1344B1B681D4219
:1012A0004AD135B1083515F0070F02D025F00705F2
:1012B0000835002D42D02E4B1B68AB424DD32D4A32
:1012C000146804E0FFF780FFE7E722461C466368E6
:1012D000AB4202D22368002BF7D1234B1B68A342F9
:1012E0003DD0166808362368136063685B1B102BBB
:1012F00010D9601910F0070F08D04FF0500383F396
:101300001188BFF36F8FBFF34F8FFEE743606560B7
:10131000FFF78CFF626816490B689B1A0B60164931
:1013200009688B4201D214490B60104B1B681343B0
:1013300063600023236002E0002600E0002600F046
:10134000D1FA16F0070F0CD04FF0500383F3118839
:10135000BFF36F8FBFF34F8FFEE70026EFE7002646
:10136000EDE7304670BD00BF9C000020A00C0020BF
:10137000A40C0020AC0C0020A80C002080B338B5D1
:101380000446A0F1080550F8043C164A12681342BE
:1013900008D14FF0500383F31188BFF36F8FBFF371
:1013A0004F8FFEE750F8081C41B14FF0500383F314
:1013B0001188BFF36F8FBFF34F8FFEE723EA02035D
:1013C00040F8043C00F0FAF954F8041C064A13688B
:1013D0000B4413602846FFF729FF00F083FA38BD5D
:1013E000704700BFA00C0020A40C0020084B1B6815
:1013F0001B6823B9074B4FF0FF321A607047044B4C
:101400001B68DB68DB685A68024B1A60704700BFD4
:10141000B80C0020900D002010B50446006BFFF7BB
:10142000ADFF2046FFF7AAFF10BD2DE9F0470746A4
:101430009846089DDDF824900A9C266B02F18042B4
:10144000013A06EB820626F007064FF0000CBCF1CD
:101450000F0F0BD811F80C2004EB0C0383F8342089
:1014600011F80C3013B10CF1010CF0E7002384F8F3
:101470004330062D00D90625E56265644FF0000A69
:10148000C4F848A0201DFFF723FD04F11800FFF762
:101490001FFD2461C5F10705A5616462C4F84CA075
:1014A00084F850A0424639463046FFF77BFD206065
:1014B000B9F1000F01D0C9F80040BDE8F087000085
:1014C00038B5002407E004EB840293000E4818446A
:1014D000FFF7F3FC0134062CF5D90C4D2846FFF735
:1014E000ECFC0B4C2046FFF7E8FC0A48FFF7E5FC54
:1014F0000948FFF7E2FC0948FFF7DFFC084B1D60D5
:10150000084B1C6038BD00BFC00C0020640D0020DB
:10151000780D0020980D0020C40D0020B00D002093
:10152000B80C0020BC0C002010B50446FFF762FD8B
:10153000214A136801331360204B1B685BB1204BB9
:101540001B686BB91D4B1B68DA6AE36A9A4207D8BD
:101550001A4B1C6004E0194B1C601368012B28D047
:10156000184A136801331360E06A01238340164A66
:1015700011680B43136000EB8000211D134B03EB3C
:101580008000FFF7A8FCFFF757FD0D4B1B687BB1F0
:101590000A4B1B68DA6AE36A9A4209D24FF0E023E9
:1015A0004FF08052C3F8042DBFF34F8FBFF36F8FFE
:1015B00010BDFFF785FFD3E74C0D0020B40C0020D1
:1015C000AC0D00205C0D0020600D0020C00C002040
:1015D0000F4B1B68D3B110B5FFF70CFD0D4BDB684B
:1015E000DC68201DFFF79BFC0B4A1368013B13606E
:1015F000074A1368013B1360FFF71EFD2046FFF703
:101600000BFF034B1B68002BE6D110BD704700BFDA
:10161000500D0020C40D00204C0D002008B5FFF730
:10162000D7FF074B1B68012BF9D94FF0E0234FF090
:101630008052C3F8042DBFF34F8FBFF36F8FEEE7D7
:10164000C00C002070B504460D461D4B1E681D4B96
:1016500018680430FFF763FC50B91A4B1B68DA6A4C
:10166000012303FA02F218490B6823EA02030B6014
:10167000B4F1FF3F0DD03444124B1B685C60A642AE
:1016800010D9124B18680F4B19680431FFF72EFC64
:1016900070BD002DEFD00B4B196804310C48FFF7DB
:1016A0001AFCF5E70B4B1868064B19680431FFF775
:1016B0001DFC094B1B68A342EAD9074B1C60E7E7F6
:1016C000D80D0020B40C0020600D0020BC0C0020C0
:1016D000B00D0020B80C0020900D00202DE9F04343
:1016E00085B00746884614461E469000FFF7CEFD9B
:1016F000F0B181465420FFF7C9FD0546A0B1C0F8FE
:101700003090D5B10023039302950D9B01930C9B60
:1017100000933346224641463846FFF786FE284668
:10172000FFF702FF012005E04846FFF727FEE8E744
:101730004FF0FF3005B0BDE8F0834FF0FF30F9E720
:1017400000B583B0174B0193002300938022164904
:101750001648FFF7C3FF012805D0B0F1FF3F17D0AF
:1017600003B05DF804FB4FF0500383F31188BFF31F
:101770006F8FBFF34F8F0E4B4FF0FF321A600D4B40
:1017800001221A600C4B00221A60FFF7BDFCE7E74C
:101790004FF0500383F31188BFF36F8FBFF34F8F68
:1017A000FEE700BF8C0D00200C2900081D16000864
:1017B000900D0020AC0D0020D80D0020024A1368C7
:1017C00001331360704700BF580D0020F8B53A4B45
:1017D0001B68002B64D1394B1D6801351D60C5B9EC
:1017E000374B1B681B6843B14FF0500383F31188DC
:1017F000BFF36F8FBFF34F8FFEE7314A1168314B54
:10180000186810601960304A136801331360FFF7DD
:10181000EDFD2E4B1B68AB4238D900272C4B1B68C3
:10182000DB6A03EB83039A002A4B9B58012B3CD9BC
:1018300001273AE00127224B1B681B6843B3204B6A
:101840001B68DB68DC6863689D4226D3261D304632
:10185000FFF765FBA36A1BB104F11800FFF75FFBFC
:10186000E36A01229A401C49086802430A6003EBBC
:1018700083039A00314617481044FFF72CFBE26AB5
:10188000134B1B68DB6A9A42D4D2D4E70027D2E715
:101890000E4B4FF0FF321A60C0E70C4A1360BDE7F1
:1018A0000E4A13680133136000270D4B1B6803B108
:1018B00001273846F8BD00BF580D0020D80D002084
:1018C000B80C0020BC0C0020940D0020900D0020CE
:1018D000B40C0020C00C0020600D0020540D00202E
:1018E000DC0D002038B5354B1B6843B94FF0500371
:1018F00083F31188BFF36F8FBFF34F8FFEE7FFF7BE
:1019000079FB2E4B1A68013A1A601B68002B4FD1E5
:101910002B4B1B680BB900244BE00024294B1B68A0
:101920001BB3284BDB68DC6804F11800FFF7F7FAFB
:10193000251D2846FFF7F3FAE06A01238340224A77
:1019400011680B43136000EB800029461F4B03EB2B
:101950008000FFF7C0FAE26A1D4B1B68DB6A9A42FF
:10196000DCD31C4B01221A60D8E70CB1FFF73EFD17
:10197000194B1C6884B9174B1C68D4B14FF0E02395
:101980004FF08052C3F8042DBFF34F8FBFF36F8F1A
:1019900001240EE0013C07D0FFF718FF0028F9D022
:1019A0000C4B01221A60F5E70B4B00221A60E2E7AC
:1019B0000024FFF741FB204638BD00BF580D002032
:1019C0004C0D0020980D0020600D0020C00C002060
:1019D000B40C0020DC0D0020540D002010B5A8B17F
:1019E0000446104B1B6843B14FF0500383F311883A
:1019F000BFF36F8FBFF34F8FFEE7FFF7DFFE0021CE
:101A00002046FFF71FFEFFF76DFF48B94FF0E023B8
:101A10004FF08052C3F8042DBFF34F8FBFF36F8F89
:101A200010BD00BF580D0020204B1B681BB1204B80
:101A300001221A6070471E4B00221A601D4B1B6862
:101A4000B3FA83F3DBB2C3F11F0303EB83018A0014
:101A500019498A5842B94FF0500383F31188BFF3F4
:101A60006F8FBFF34F8FFEE7134903EB83008200B4
:101A70000A4450684068506003EB830C4FEA8C02C4
:101A800008321144884209D003EB83039A000A4BC1
:101A900013445B68DA68094B1A6070474068624615
:101AA0009100054A0A445060EEE700BF580D00203F
:101AB000DC0D0020600D0020C00C0020B40C0020C4
:101AC000054B1B6833B1054B1B680BB100207047F9
:101AD0000220704701207047AC0D0020580D0020F7
:101AE0002DE9F04188B000240494059406940794ED
:101AF0001E4B9A6942F040029A619A6902F04002D4
:101B00000192019A9A6942F004029A619A6902F07C
:101B100004020292029A9A6942F008029A619B6951
:101B200003F008030393039BDFF84480224620213F
:101B30004046FEF745FD0F4E224620213046FEF777
:101B40003FFD20270497012505950694079504A9D4
:101B50004046FEF715FC049705950694079504A9E1
:101B60003046FEF70DFC08B0BDE8F08100100240E1
:101B700000180140000C014008B50848084B0360FC
:101B80004FF4E133436000238360C36003610C22A0
:101B900042618361C361FFF7C9F808BDE40D00200D
:101BA0000038014008B5084800F0F8F9012220216A
:101BB0000648FEF705FD002220210548FEF700FD3E
:101BC0006420FFF773F9EEE738290008000C0140A4
:101BD0000018014008B5094800F0E0F90022202172
:101BE0000748FEF7EDFC012220210648FEF7E8FC3D
:101BF0004FF4FA70FFF75AF9EDE700BF40290008EB
:101C0000000C01400018014008B50A2307220449CE
:101C10000448FFF7BAF8C820FFF748F9F5E700BF16
:101C200048290008E40D002010464FF0000C0AE09F
:101C3000064B1B6813F0400FFAD011F80C20034B31
:101C40005A600CF1010C8445F2DB7047003801400A
:101C500010B590B02822002106A800F029F9002430
:101C6000019402940394049405940223069301239F
:101C70000A9310230B9306A8FEF7BEFC0F230193D3
:101C80000294039404940594214601A8FEF7F2FE01
:101C900010B010BD00B591B0FEF7F0FAFFF7D8FF15
:101CA000FFF71EFFFFF768FF1C4C0DF12C0CA6463A
:101CB000BEE80F00ACE80F00DEF80030CCF80030D2
:101CC00000210BA8FFF7D8F8154B18600DF1180C80
:101CD00004F1140EBEE80F00ACE80F00DEF800308F
:101CE000CCF80030002106A8FFF7C6F80D4B1860AD
:101CF0000DF1040E04F1280CBCE80F00AEE80F0053
:101D0000DCF80030CEF80030002101A8FFF7B4F86D
:101D1000054B1860FFF7ABF8FEE700BFBC280008D2
:101D2000E00D0020240E0020280E002000B583B016
:101D3000114B9A6942F001029A619A6902F001021C
:101D40000092009ADA6942F08052DA61DB6903F0AE
:101D500080530193019B00220F216FF00100FEF7D9
:101D6000C3FA064A536823F0E06343F000735360FC
:101D700003B05DF804FB00BF00100240000001400A
:101D800010B586B000230293039304930593026871
:101D9000174B9A4201D006B010BD03F558439A691B
:101DA00042F480429A619A6902F480420092009A59
:101DB0009A6942F004029A619B6903F0040301935B
:101DC000019B4FF4007302930223039303230593B3
:101DD000084C02A92046FEF7D3FA4FF48063029321
:101DE00000230393049302A92046FEF7C9FAD2E721
:101DF00000380140000801407047FEE7FEE7FEE7BB
:101E0000FEE7704708B5FEF74BFAFFF759FE0128C9
:101E100000D108BDFFF74EF9FBE77047002103E052
:101E20000B4B5B58435004310A480B4B42189A4203
:101E3000F6D30A4A02E0002342F8043B084B9A42D8
:101E4000F9D3FFF7EAFF00F00FF8FFF723FF704721
:101E5000D429000800000020740000207400002035
:101E6000400E0020FEE7000070B500260C4D0D4C22
:101E7000641BA410A64209D100F014FD00260A4DEF
:101E80000A4C641BA410A64205D170BD55F8043B52
:101E900098470136EEE755F8043B98470136F2E7DC
:101EA000CC290008CC290008CC290008D02900083A
:101EB00003460244934200D1704703F8011BF9E73F
:101EC00070B50E46054618B183690BB900F044FAA7
:101ED000AB69AC6813B9284600F03EFA2C4B9C4223
:101EE00020D16C68636EDB0705D4A389980502D402
:101EF000A06D00F0CFFAA38919071DD52369DBB1C6
:101F0000013EA36816F8011F013BA36039BB002BFB
:101F100038DA22460A21284600F048F8013011D06C
:101F20000A2511E01B4B9C4201D1AC68DAE71A4B41
:101F30009C4208BFEC68D5E72146284600F088F8A7
:101F40000028DDD04FF0FF35636EDA0705D4A38992
:101F50009B0502D4A06D00F09EFA284670BD002BB0
:101F600004DAA2699A4206DC0A2904D023685A1CC2
:101F700022601970C5E72246284600F017F80130A4
:101F8000BFD1DFE70A2523685A1C22601D70DBE7FA
:101F90008C290008AC2900086C290008024B014676
:101FA0001868FFF78DBF00BF10000020F8B50E467F
:101FB0001446054618B183690BB900F0CDF9214BE1
:101FC0009C422BD16C68A369A360A3891A072FD503
:101FD00023696BB323692068F6B2C01A6369374678
:101FE000834204DC2146284600F022F930BBA36876
:101FF0000130013BA36023685A1C22601E70636994
:10200000834204D0A389DB0706D50A2E04D12146DA
:10201000284600F00DF988B93846F8BD0A4B9C42B5
:1020200001D1AC68CFE7094B9C4208BFEC68CAE716
:102030002146284600F00CF80028CBD04FF0FF379F
:10204000EAE700BF8C290008AC2900086C290008C9
:10205000324B70B51D6806460C4625B1AB6913B905
:10206000284600F079F92E4B9C420FD16C68A38969
:10207000B4F90C2019072CD4DD0611D409233360E0
:1020800042F040034FF0FF30A3813EE0254B9C42DD
:1020900001D1AC68EBE7244B9C4208BFEC68E6E753
:1020A000580712D5616B41B104F14403994202D043
:1020B000304600F057FA00236363A38923F024031A
:1020C000A3810023636023692360A38943F008038D
:1020D000A38123694BB9A38903F42073B3F5007F6F
:1020E00003D02146304600F0FDF9A089B4F90C2058
:1020F00010F001030AD00023A36063695B42A3616F
:10210000236943B910F08000BAD170BD810758BF70
:102110006369A360F4E70020F7E700BF1000002028
:102120008C290008AC2900086C2900088A89F8B5B8
:10213000054610070C4657D44B68002B04DC0B6C8B
:10214000002B01DC0020F8BDE66A002EFAD0002347
:1021500012F480522F682B6032D0606DA3895A0729
:1021600005D56368C01A636B0BB1236CC01A0023DA
:102170000246E66A2846216AB047431CA38906D175
:1021800029681D292CD8294ACA40D60728D50022FB
:1021900062602269D904226004D5421C01D12B68F7
:1021A00003B96065616B2F600029CBD004F1440353
:1021B000994202D0284600F0D5F900206063C2E7BA
:1021C000216A01232846B047411CC7D12B68002B48
:1021D000C4D01D2B01D0162B01D12F60B2E7A389EB
:1021E00043F04003A381AEE70F69002FAAD0930705
:1021F00018BF00230E6808BF4B69F61B0F608B6089
:10220000002E9FDD33463A462846216AD4F828C07E
:10221000E047002806DCA3894FF0FF3043F040037D
:10222000A38190E70744361AEAE700BF0100402087
:1022300038B50B6905460C4613B90025284638BD4C
:1022400018B183690BB900F087F8144B9C421BD17D
:102250006C68B4F90C30002BEFD0626ED00704D458
:10226000990502D4A06D00F015F928462146FFF724
:102270005DFF636E0546DA07E0D4A3899B05DDD4D4
:10228000A06D00F008F9D9E7054B9C4201D1AC687C
:10229000DFE7044B9C4208BFEC68DAE78C290008B2
:1022A000AC2900086C290008002310B50446C0E9D9
:1022B0000033C0E90433836081814366C281836156
:1022C000194608225C30FFF7F3FD054B2462636278
:1022D000044BA362044BE362044B236310BD00BFB5
:1022E000C9260008EB260008232700084727000816
:1022F000014900F0AFB800BF31220008682270B574
:102300004D1E55430E4605F1740100F073F9044665
:1023100040B10021C0E900160C30A06005F1680250
:10232000FFF7C6FD204670BD014800F0B3B800BFFE
:102330002D0E0020014800F0AEB800BF2D0E002089
:10234000014800F0A7B800BF2E0E0020014800F0A1
:10235000A2B800BF2E0E002010B50446FFF7F0FF14
:10236000A3691BB1BDE81040FFF7F0BFC4E9123309
:102370002365134B134A1B68A262A34208BF0123C3
:10238000204608BFA36100F01FF86060204600F0FF
:102390001BF8A060204600F017F800220421E0603E
:1023A0006068FFF781FF01220921A068FFF77CFF29
:1023B00002221221E068FFF777FF0123A361D1E732
:1023C00068290008F1220008F8B50746FFF7ACFFBE
:1023D0001E4B1E68B36913B93046FFF7BDFF483680
:1023E000D6E90134013B03D533680BB33668F7E710
:1023F000B4F90C50D5B9164B04F15800E36065668A
:1024000000F047F8FFF796FF08222946C4E9015576
:10241000C4E904552560A56104F15C00FFF748FD9F
:10242000C4E90D55C4E912552046F8BD6834D9E712
:1024300004213846FFF762FF044630600028D5D1FA
:10244000FFF778FF0C233B60EEE700BF6829000828
:102450000100FFFF2DE9F84306468846002700F1FA
:102460004804D4E90195B9F1010905D52468002C87
:10247000F7D13846BDE8F883AB89012B07D9B5F908
:102480000E30013303D029463046C0470743683534
:10249000E9E770477047704770B50E46B1F90E1006
:1024A000144600291D4696B008DA0022B6F90C3011
:1024B0002A601A0610D44FF480630EE06A4600F0DA
:1024C00069F90028F1DB019A02F47042A2F5005389
:1024D0005A425A412A60EEE740230020236016B09A
:1024E00070BD00008B8973B59D0706460C4607D565
:1024F00004F14703236023610123636102B070BDCF
:102500006A4601ABFFF7C8FF00990546304600F068
:1025100071F848B9B4F90C309A05EFD423F00303ED
:1025200043F00203A381E3E70D4BB362A38920606C
:1025300043F08003A381009B20616361019B5BB139
:102540003046B4F90E1000F037F928B1A38923F012
:10255000030343F00103A381A0890543A581CDE7CF
:10256000F122000838B50546002940D051F8043C56
:102570000C1F002BB8BFE41800F040F91C4A136888
:1025800033B9636014602846BDE8384000F03CB9B8
:10259000A34208D9206821188B4201BF19685B68E3
:1025A00009182160EDE71A465B680BB1A342FAD91E
:1025B00011685018A0420BD1206801445018834282
:1025C0001160E0D118685B68014411605360DAE77C
:1025D00002D90C232B60D6E7206821188B4201BF5B
:1025E00019685B680918216063605460CBE738BDE7
:1025F000300E0020F8B5CD1C25F0030508350C2D54
:1026000038BF0C25002D064601DBA94203D90C2357
:1026100033600020F8BD00F0F1F821490A68144643
:102620009CB9204F3B6823B92146304600F03CF866
:1026300038602946304600F037F8431C23D10C237C
:102640003046336000F0E0F8E3E723685B1B17D403
:102650000B2B03D923601C44256004E06368A2426D
:102660000CBF0B605360304600F0CEF804F10B0055
:10267000231D20F00700C21ACCD01B1AA350C9E7B3
:1026800022466468CCE7C41C24F00304A042E3D0D3
:10269000211A304600F008F80130DDD1CFE700BF45
:1026A000300E0020340E002038B50023054D0446BE
:1026B00008462B6000F0E8F8431C02D12B6803B1F8
:1026C000236038BD380E002010B50C46B1F90E104D
:1026D00000F0A0F80028ABBF636DA3891B1823F49A
:1026E0008053ACBF6365A38110BD2DE9F0411F4647
:1026F0008B890546DB050C46164605D502230022CC
:10270000B1F90E1000F068F8A389324623F4805323
:10271000A38128463B46B4F90E10BDE8F04100F015
:1027200017B810B50C46B1F90E1000F055F8431C5F
:10273000A38915BF606523F4805343F48053A381BC
:1027400018BFA38110BDB1F90E1000F013B800003E
:1027500038B50446084611460022054D2A601A463F
:10276000FFF762FA431C02D12B6803B1236038BD26
:10277000380E002038B50023054D044608462B606E
:1027800000F05AF8431C02D12B6803B1236038BD16
:10279000380E002038B50023064D04460846114681
:1027A0002B6000F051F8431C02D12B6803B1236069
:1027B00038BD00BF380E002038B50023054D044653
:1027C00008462B6000F048F8431C02D12B6803B187
:1027D000236038BD380E002038B50446084611463F
:1027E0000022054D2A601A4600F03EF8431C02D133
:1027F0002B6803B1236038BD380E00200148FFF775
:1028000049BE00BF2C0E00200148FFF744BE00BFA8
:102810002C0E002038B50446084611460022054D0E
:102820002A601A4600F028F8431C02D12B6803B135
:10283000236038BD380E00205822024B4FF0FF3085
:102840001A607047380E00205822024B4FF0FF30BC
:102850001A607047380E00205822024B00201A6080
:10286000704700BF380E00205822024B4FF0FF3057
:102870001A607047380E00205822024B4FF0FF308C
:102880001A607047380E0020044A05491368002B6F
:1028900008BF0B4618441060184670473C0E0020D5
:1028A000400E0020F8B500BFF8BC08BC9E4670473B
:0C28B000F8B500BFF8BC08BC9E4670479D
:1028BC0014290008A51B00080000000000000000FF
:1028CC008000000020290008D51B0008FDFF000037
:1028DC0000000000800000002C290008091C0008E2
:1028EC00FDFF000000000000800000000203040552
:1028FC00060708090A0B0C0D0E0F10100000000043
:10290C0049444C450000000064656661756C745464
:10291C0061736B006D795461736B30320000000091
:10292C006D795461736B3033000000003131310D1F
:10293C00000000003333330D0000000068656C6C40
:10294C006F0D0A00000000000000000001020304EB
:10295C00060708090000000001020304140000200F
:10296C00000000000000000000000000000000005B
:10297C00000000000000000000000000000000004B
:10298C00000000000000000000000000000000003B
:10299C00000000000000000000000000000000002B
:1029AC00000000000000000000000000000000001B
:1029BC00000000000000000000000000000000000B
:0429CC0015020008E8
:0429D000F101000809
:1029D4000100000010000000AAAAAAAA0024F40022
:1029E40014000020000000008C290008AC29000815
:1029F4006C29000800000000000000000000000036
:102A040000000000000000000000000000000000C2
:102A140000000000000000000000000000000000B2
:102A240000000000000000000000000000000000A2
:102A34000000000000000000000000000000000092
:042A4400000000008E
:0400000508001E1DB4
:00000001FF
